:10000000D8100020411200003D1200003D120000F7
:1000100000000000000000000000000000000000E0
:100020000000000000000000000000003D12000081
:1000300000000000000000003D1200003D12000022
:100040003D1200003D1200003D1200003D12000074
:100050003D1200003D1200003D1200003D12000064
:100060003D1200003D1200003D1200003D12000054
:100070003D12000000000000000000003D120000E2
:100080003D1200003D1200003D1200003D12000034
:100090003D12000000000000000000003D120000C2
:1000A0003D1200003D1200003D1200003D12000014
:1000B0000000000010B5064C2378002B07D1054B3B
:1000C000002B02D0044800E000BF0123237010BDC4
:1000D0006800002000000000E42A0000084B10B572
:1000E000002B03D00749084800E000BF0748036819
:1000F000002B00D110BD064B002BFBD09847F9E731
:10010000000000006C000020E42A0000E42A000047
:100110000000000010B51E4AD36904210B43D361CF
:100120001C4B2022FF321A831A7D0523D20701D4EB
:10013000180010BD03781B02C022920013404178C2
:10014000C901FF220A401343817849001E220A4058
:100150001343C27892048021C9020A4013430279F2
:100160001204C02189020A4013430A4A536093686B
:100170005B035B0F084908249C400C8093684B800C
:1001800043780B71138BDB05DB0F1B01D0E7C046F7
:1001900000040040004000418400002030B504000D
:1001A000224A1088538843438B4206D28022920110
:1001B00018201F4BCB1893420ED81E4B5D6880222F
:1001C000D2022A435A602022FF321A831B7DDB07AA
:1001D00003D4184B5D60052030BD452C22D8A30008
:1001E000154AD3589F46134B1B8BDB0503D5114B88
:1001F0005D601020F0E7890849000E4BD96103E0EB
:10020000890849000B4BD961A52000020443094B22
:100210001C80190001220B7D1342FCD0054B5D6050
:100220000020D9E7034B5D601720D5E7840000204C
:1002300000C07FFF00400041A0270000F8B5254B1B
:100240001D885B886B431824834201D22000F8BDCF
:100250006B1E1842FAD1013C9542F7D31E4B1B7D11
:10026000123CDB07F2D51D4C1B4B1C801D000124EA
:100270002B7D2342FCD02024FF34174B1C83002A03
:1002800022D0012305009D430023571E09E0CE180C
:100290007678360234432C8002339BB202359A4280
:1002A00004D9CC5CBB42F2DBA4B2F4E7094B1B7966
:1002B0000024002BCAD13F2AC8D800220100042004
:1002C000074B98470400C1E7024B1B790024002B21
:1002D000F3D0BBE7840000200040004144A5FFFFAD
:1002E0009D010000134B1A885B88534318218342F9
:1002F00001D2080070479200013A1042F9D10E4B2A
:100300001B7D1339DB07F4D50B4B2022FF321A83F8
:1003100080084000D861094A1A80190001220B7D2B
:100320001342FCD0044B198B1C200140481E814114
:100330008900DEE7840000200040004102A5FFFFA5
:10034000F0B5DE4657464E464546E0B587B0804696
:10035000049116001F000022002300218B463F2439
:1003600001202100009601975C46039444460594C1
:1003700013E02024641A0500E540A84614E0009C20
:10038000019D121BAB415C464D462C43A346039C8A
:1003900045462C430394013925D3202464420C198B
:1003A000E7D40500A540A84604008C40A146921859
:1003B0005B4114001D00059E4F463E40B446049E1E
:1003C00047463E40B246664657463E4303D0060087
:1003D000264332002B00009C019D9D42DBD8CED1EC
:1003E0009442D8D8CBE7039B5846190007B03CBCD1
:1003F00090469946A246AB46F0BD10B54908402349
:100400000024814202D2180010BD1C00091A631C8E
:100410009BB28842F9D94023FF2CF4D814800023E2
:10042000F1E70000F0B583B00F00160008AA1178BC
:1004300004004C434022BC4202D9100003B0F0BD7E
:10044000002B14D1020008000021194CA047010024
:100450003A0000230020174CA04700220123121A63
:100460008B41120C1B041A4332800022E5E7002264
:10047000012BF9D10A00002300210D4CA0470200F6
:100480000B0000920193380000210A4CA0470500A0
:1004900080239B0140229842CFD8790FF800009A20
:1004A000019BA047EA00821AD2B252032A43DBE73B
:1004B0003D1600004103000010B582B004000E4B51
:1004C0001B78002B07D0002905D10B4B5B788342AA
:1004D00010D01D200CE001A90C701320074B984789
:1004E0001320074B9847044B5C7001221A700020C0
:1004F00002B010BD0020FBE78C000020E5100000DA
:10050000591000002B4B984223D00FD92A4B984208
:100510002FD02A4B984242D101293AD0002946D007
:10052000022938D0032938D0002039E0244B9842E2
:1005300035D1012907D0002933D0022905D003295C
:1005400005D000202CE01F482AE01F4828E01F4863
:1005500026E0012907D0002925D0022905D003294A
:1005600005D000201CE01A481AE01A4818E01A4882
:1005700016E0012907D0002917D0022905D0032948
:1005800005D000200CE015480AE0154808E01548A1
:1005900006E0154804E0154802E0154800E0002098
:1005A00070471448FCE70320FAE71348F8E71348BC
:1005B000F6E7C046000C0042001000420014004262
:1005C00000080042030005000300060003000700C6
:1005D0000300010003001E0003001F0003000900C8
:1005E00003000A0003000B000300110003001200C7
:1005F00003001300030004000300080003001000C0
:1006000030B585B06A460F4B32CB32C21B681360DF
:100610000300009A824211D0019A82420AD0029AC3
:10062000824209D00020039A9A4201D005B030BD21
:10063000033004E0012002E0022000E00020C0B20C
:10064000F4E7C046B8280000F0B5C64600B50C0077
:10065000904600280FD1002A11DD8F18094E0A4D4F
:10066000306821002B6898470134BC42F8D14046DD
:1006700004BC9046F0BD01235B429846F7E78046F4
:10068000F5E7C046C4000020BC000020F0B5C64617
:1006900000B50E0015000138022810D8002A11D02C
:1006A00000240C4B98460C4F43461868315D3B685C
:1006B0009847002808DB0134A542F5D106E0012463
:1006C000644203E0140001E001246442200004BC01
:1006D0009046F0BDC4000020C000002070B582B07C
:1006E00005000E0000226B46DA80064C6B46991D11
:1006F0002800A0470028F9D16B4606331B883370C9
:1007000002B070BD2B0B000070B505008CB2034E1B
:1007100021002800B0470028FAD170BD010B00006D
:1007200070B590B08023DB05009300230193FF2276
:1007300069460A8100228B72CB72012124206C460B
:1007400021540130215425316354013163540A93FB
:10075000053163540131635405932382E376227695
:10076000227762761323A376627780235B03039359
:10077000164B0C93164B0D93164B0E93164B0F9373
:10078000E1235B020893154C154B1C60154A164B70
:100790001A60164A164B1A606A4616492000164B14
:1007A0009847164E336898680021154DA84733685E
:1007B00058680021A8472268D369002BFCD1136830
:1007C00002210B43136010B070BDC046020016003A
:1007D000020017000200180002001900C8000020E3
:1007E000C400002009070000C0000020DD06000052
:1007F000BC00002000140042050800000400002096
:10080000F1170000F0B5DE4657464E464546E0B5C6
:1008100091B005000C00160029600800AD4B984708
:10082000020023680520DB0706D511B03CBC9046CA
:100830009946A246AB46F0BD236817309B07F4D417
:10084000A549086A971C0123BB4003430B620FA90B
:100850002D27F35D0B701432D3B2029318009F4B17
:10086000984702989E4B9847F05D00219D4B984712
:10087000F37A6B712423F35CAB712523F35CEB718A
:10088000F37E2B72337F6B722B6898461800914B66
:100890009847143000220E2306A98C4663441A8020
:1008A000328A02928023DB019A4200D19FE00FD965
:1008B000C023DB01029A9A4200D193E080231B02FD
:1008C0009A4200D001E1032306930023079308E036
:1008D00080239B019A4200D0F7E0102306930F3B40
:1008E000079333689B46F368049373699A46337E93
:1008F00005932623F35C039373689946002B00D17C
:10090000A1E080235B05994500D185E0737E002B33
:1009100002D0B37E424693732A68029FD369002BAC
:10092000FCD10E3306AA944663441B884246938149
:100930005B46049A1343524613434A4613431F43EC
:10094000059B1B021F43039B5B071F432723F35C8D
:10095000002B01D104331F43737E9B02327F52026E
:100960001343727F120213432422B25C52041343D6
:100970002522B25C12041343B17AF27A114319436F
:100980003389FF2B00D182E08022520417431943A0
:100990002C23F35C002B03D1534B9B789B0701D591
:1009A00080231F432A68D369002BFCD1434659603A
:1009B0002A68D369002BFCD143461F600EAB80220E
:1009C0001A7000225A70DA709A70336B0A93736B44
:1009D0000B93B36B0C93F36B02930D9300270AAD4B
:1009E000424E63E008230693073B079379E7336899
:1009F0009B46F368049373699A46337E05932623D6
:100A0000F35C039373689946002B18D080235B0531
:100A1000994501D0002025E02723F35C002B00D06E
:100A200074E7336A1F00C0B2314B984701000E22B1
:100A300006AB9C46624438002E4B984712E00823D0
:100A40000693002307932723F35C002B0ED0069B0D
:100A50000093079B0E2206A98C466244B16A306A55
:100A6000254FB847002800D0DFE64FE7336A1F0064
:100A7000C0B21F4B98470100069B0093079B0E22B4
:100A800006A88446624438001B4FB847EAE7F37E65
:100A9000002B00D17CE78023DB041F4378E7200094
:100AA000164B984707E00137042F0CD0F9B2BB0072
:100AB00058590028F3D0431CF5D00EA90870000C3B
:100AC000C0B2B047EFE70020AFE610230693002343
:100AD000079306E70106000000040040E51000004F
:100AE00059100000B904000000200041DD11000091
:100AF00001110000FB0300002504000005050000B3
:100B0000C3791C22002B01D1100070470368187EA6
:100B1000173AC007F8D5DA69002AFCD119850221F5
:100B20001A7E0A42FCD00022EEE782791C23002ABA
:100B300001D1180070470268107E173B4007F8D5B6
:100B4000D369002BFCD1538BDBB298061DD09807DC
:100B500003D5022353831833EBE7580703D5042347
:100B600053831A33E5E7D80703D5012353831233A0
:100B7000DFE7D80603D5102353833233D9E79B062A
:100B800003D5202353832133D3E7138D0B80002318
:100B9000CFE70000F0B5D64600B584B0040001915F
:100BA0001720002A03D104B004BC9246F0BDA379FB
:100BB0000530002BF7D02668013A93B29A460025FB
:100BC000042719E0002302AAD380911D2000154BB1
:100BD00098470028E7D1691C89B202ABDB88019AEB
:100BE00053556279012A14D00D005346013B9BB244
:100BF0009A460D4B9A45D6D0337E3B42E2D10A4B02
:100C0000327E3A42DED1012B09D0013B002BF7D1D5
:100C1000D8E70235ADB21B0A019A5354E5E712201A
:100C2000C1E7C0462B0B0000FFFF0000704700002B
:100C30000C4B1B68002B06D1EFF31083002B07D061
:100C40000022094B1A70074A13680133136070477A
:100C500072B6BFF35F8F0022044B1A700132024B51
:100C60001A70F0E79000002094000020000000209F
:100C7000084B1A68013A1A601B68002B09D1064B11
:100C80001B78002B05D00122044B1A70BFF35F8F35
:100C900062B6704790000020940000200000002001
:100CA00010B5082803D880001B4B1B589F46002016
:100CB00030E01A4B18692DE0194B1B6A9B059B0FFE
:100CC0001848D84026E0154B586923E0134B1B68A1
:100CD00000209B071ED512491022CB681A42FCD077
:100CE0000E4B1B685B0701D40F4813E000200F4B2D
:100CF00098470A4B9B681B041B0C58430AE050237F
:100D0000074AD35C00205B0704D5044BD86801E098
:100D10008020000210BDC046C828000098000020B6
:100D20000008004000127A00006CDC020111000093
:100D300070B50C490B6A0478857840780122104020
:100D400080014026B34303432A40D20180208343DD
:100D500013430322224012020348034013430B6251
:100D600070BDC04600080040FFFCFFFF082803D804
:100D70008000254B1B589F46172044E0234A136AE6
:100D800002210B43136200203DE0204A93690221B7
:100D90000B439361002036E01C4A138A02210B4367
:100DA000138200202FE0194A938A02210B43938279
:100DB000002028E016490B68022213430B60134BF6
:100DC0009A8419000E32CB681A42FCD0104A9168FE
:100DD0000E4BD96252689A6200229A84190010322E
:100DE000CB681A42FCD00A4B1B689BB2074A93841B
:100DF000002008E0054944228B5C022003438B5409
:100E0000002000E000207047EC28000000080040AF
:100E10009800002030B585B0C222D2001A4B9A60EB
:100E20001A4A53681E218B43536001236A4613708C
:100E30000024174DE0B26946A8470134252CF9D1AA
:100E400003A800244470012585700470114B984755
:100E50000620114B9847114B9847114B1C725C723E
:100E60009C72DC7201956B465C7006236A461370B7
:100E700014725472694600200A4B984700200A4BAE
:100E8000984705B030BDC046000800400040004112
:100E9000E5100000310D00006D0D0000AD0E0000EA
:100EA00000040040D10E0000890F0000064A93693B
:100EB00008210B4393610122044B1A7019000B782F
:100EC0001342FCD17047C04600040040000C0040B3
:100ED00070B5060004000D782D0205434B78002BF9
:100EE00002D08023DB021D434B7A002B02D08023EB
:100EF0001B031D434868012810D9431E184234D1F2
:100F0000022830D90223002201325B009842FBD82C
:100F100012023243140080235B031D430B7A002B23
:100F200002D080239B031D43134A53785BB2002BEE
:100F3000FBDB124B9847124B1E700F4A53785BB283
:100F4000002BFBDB0C4B9C601A0053785BB2002B30
:100F5000FBDB094A5368802149020B401D43556061
:100F6000084B984770BD0022D2E704023443802327
:100F70009B021D43D2E7C046000C0040310C00002C
:100F8000080C0040710C000010B504000B4A5378A7
:100F90005BB2002BFBDB0A4B98470A4B1C70074ADD
:100FA00053785BB2002BFBDB044A516880235B0261
:100FB0000B435360044B984710BDC046000C0040E3
:100FC000310C0000040C0040710C000070B50400EE
:100FD0001A4A53785BB2002BFBDB194B9847194B2D
:100FE0001C70164A53785BB2002BFBDB134E706803
:100FF000C004C00E144B98470500124B1C70766855
:10100000F602F60F114B1C700C4A53785BB2002BA2
:10101000FBDB0A4B9C682402240C0D4B9847002EE6
:1010200007D1012C07D9210028000A4B9847050059
:1010300001E00134E540280070BDC046000C0040CE
:10104000310C0000040C0040A10C0000080C004012
:10105000710C00002515000010B50400064B9847E0
:10106000064B1C70064A53888021C9010B435380EC
:10107000044B984710BDC046310C0000020C0040E4
:10108000000C0040710C000010B504000F4B984795
:101090000F4B1C700F4A53881B05180F53880E49BD
:1010A0000B40538053880D490B4053801100802220
:1010B000D2014B881342FCD106494A8803020648F4
:1010C000024013434B80064B984710BD310C000083
:1010D000020C0040000C0040FFF0FFFFFFBFFFFFCD
:1010E000710C000010B50C7824020443024B9847A1
:1010F000A4B2024B5C8010BD89100000000C0040BF
:1011000010B50400064B9847064B1C70064B5C88D4
:101110002405240F054B98472000054B984710BD28
:10112000310C0000020C0040000C0040710C00006B
:10113000CD0F000030B5D378002B35D11378802B3C
:1011400029D01B0680246402234354780225AC4333
:1011500006D19478002C20D18024A402234341603E
:101160005478013C012C1CD90D042D0CA024E4055D
:101170002C431C4384620D0CD02424062C431C43B6
:101180008462D478002C22D15B031CD59378012B88
:101190001ED0416117E00023D7E7C024E4022343B7
:1011A000DDE70D4C2340DFE741600C04240CA02355
:1011B000DB05234383620C0CD0231B06234383628D
:1011C000D378002B03D15378013B012B02D930BDDA
:1011D0008161F8E78160FAE7FFFFFBFF10B50A00C5
:1011E000C1090023002904D14309DB0105498C46CC
:1011F00063441F242040012181401800024B98477E
:1012000010BDC04600440041351100007047000089
:1012100010B5054B9847054B9847054B9847054B2C
:101220009847054B984710BD150E00002D0C000087
:101230000D1200000D1200000D120000FEE700006C
:10124000F8B52A4A2A4B9A4211D01A00294B9A42E1
:101250000DD2294A03339B1A9B0801339B000022BD
:10126000234822498C58845004329A42FAD1234AA6
:10127000234B9A420AD2D34321495B1803218B4363
:1012800004339B18002102C29342FCD11D4AFF2166
:101290001D4B8B439360FD3990235B001B4AD1505B
:1012A0001B4AD3780325AB4302242343D370D3785E
:1012B0000C27BB4308263343D370164B987B302250
:1012C0009043202210439873997BB943314399731B
:1012D0009A7BAA4322439A730F4A536880210B4397
:1012E00053600E4B98470E4B9847FEE7E42A0000E8
:1012F000000000206800002004000020680000209A
:10130000D800002000ED00E0000000000070004167
:10131000005000410048004100400041911600008B
:10132000311400000300064A1268002A04D0044A5F
:101330001068C318136070470249014A1160F6E74C
:10134000B0000020D81000200120404270478023C8
:101350009B014B60002070470120704700207047C0
:1013600000B583B000226B461A70074B5B68DB0642
:101370001B0F69468B70CA700A714A706846034B2E
:10138000984703B000BDC046004000411501000071
:10139000F0B5DE46474680B583B0009104021A4E90
:1013A0001A4D1B4F3000A8472000B8470528F9D038
:1013B0001848164EB0471848B047009A9346A31AEB
:1013C00098460124154F164D5E4646445B460193F0
:1013D000009400991348B847402201993000A8476B
:1013E0000528F6D0009910480C4B9847013440234B
:1013F0009C46E344052CE7D10C48044B984703B0C6
:101400000CBC90469B46F0BDC0290000DD170000D3
:10141000E5020000D4290000E4290000E9160000DC
:101420003D020000F8290000082A00001C2A0000E4
:10143000F0B5D6464F4680B52A4CA54400AF2A4B9E
:101440001B685A1C07D0A022D201116881F30888BA
:1014500026498A601847264B9847264B98472648C6
:10146000264CA047264B98472648A0475025264E95
:1014700018E02648214B98470823FC182B1D9A4654
:101480002800234B9946431C7B602100C847013448
:10149000FF3478685045F6D104351E48174CA047F4
:1014A0001D48A0478024E40022000823F9181B48A7
:1014B000B0470028F8D13B7AFF2BDAD17B7AFF2B9B
:1014C000D7D1BB7AFF2BD4D1FB7AFF2BD1D13B7B79
:1014D000FF2BCED17B7BFF2BCBD11148074B9847FD
:1014E000FEE7C046F4FBFFFF0450000000ED00E003
:1014F000111200002107000010290000DD17000074
:10150000611300002C290000950B000068290000E1
:101510009113000084290000A0290000C8000020C9
:1015200048290000002243088B4274D303098B42F0
:101530005FD3030A8B4244D3030B8B4228D3030CA3
:101540008B420DD3FF22090212BA030C8B4202D345
:101550001212090265D0030B8B4219D300E0090A6D
:10156000C30B8B4201D3CB03C01A5241830B8B4276
:1015700001D38B03C01A5241430B8B4201D34B035F
:10158000C01A5241030B8B4201D30B03C01A5241C4
:10159000C30A8B4201D3CB02C01A5241830A8B4249
:1015A00001D38B02C01A5241430A8B4201D34B0232
:1015B000C01A5241030A8B4201D30B02C01A524196
:1015C000CDD2C3098B4201D3CB01C01A524183094A
:1015D0008B4201D38B01C01A524143098B4201D384
:1015E0004B01C01A524103098B4201D30B01C01AAF
:1015F0005241C3088B4201D3CB00C01A5241830829
:101600008B4201D38B00C01A524143088B4201D355
:101610004B00C01A5241411A00D2014652411046B5
:101620007047FFE701B5002000F006F802BDC04694
:101630000029F7D076E770477047C046F0B5CE4630
:10164000474615042D0C2E0080B50704140C3F0CE2
:101650009946030C7E435D43674363437F19340C13
:10166000E4199C46A54203D980235B029846C444F2
:101670004B46514343433604360C250C2404654441
:10168000A4195918491920000CBC90469946F0BD80
:1016900070B500260C4D0D4C641BA410A64209D158
:1016A000002601F00FFA0A4D0A4C641BA410A64252
:1016B00005D170BDB300EB5898470136EEE7B30093
:1016C000EB5898470136F2E7D02A0000D02A0000F4
:1016D000D02A0000D42A000003008218934200D1CF
:1016E000704719700133F9E70FB40B4B13B51C6841
:1016F000002C05D0A369002B02D1200000F0F2FAE3
:1017000005AB049AA1682000019300F0C7FC16BC49
:1017100008BC04B01847C0460400002070B505009E
:101720000E00002804D08369002B01D100F0DAFA02
:10173000AB69AC68002B02D1280000F0D3FA244B2F
:101740009C420FD16C68A3891B0702D52369002B2B
:1017500020D12100280000F057F900281AD00120DC
:10176000404270BD1B4B9C4201D1AC68EBE71A4B69
:101770009C42E8D1EC68E6E7013B0136A360002B10
:1017800004DAA269934216DB0A2914D023685A1C92
:10179000226019703178A3680029EDD1013BA36064
:1017A000002B0FDA22000A31280000F0D7F8431C82
:1017B000D5D00A20D5E72200280000F0CFF8431C3E
:1017C000E8D1CCE70A2023685A1C22601870C8E7C9
:1017D000502A0000702A0000302A000010B5034B88
:1017E00001001868FFF79AFF10BDC04604000020F2
:1017F0004A424A41802310B55200DB0000F002F853
:1018000010BD0000F0B51D004F4B85B01E680400F0
:101810000F000092002E05D0B369002B02D13000DA
:1018200000F060FA494B9C4250D17468009B022B37
:1018300005D0012B00D984E0002D00DA81E02100E1
:10184000300000F0E1F9616B002908D02300443337
:10185000994202D0300000F051FB00236363002363
:10186000A3616360A3891B0603D52169300000F0E2
:1018700045FBA389364A1340A381009B022B5AD013
:1018800003AB02AA2100300000F0C2FAA38918437A
:10189000A081002D24D1029D280000F025FB019598
:1018A000071E42D1029B0193AB4239D10120404235
:1018B0000223A2891343A3810023A360230047339B
:1018C000236023610123636105B0F0BD214B9C427D
:1018D00001D1B468AAE7204B9C42A7D1F468A5E7E0
:1018E000002FD9D0B369002B02D1300000F0FAF9F3
:1018F000009B012B03D1A389009A1A43A2810820DF
:10190000A389276027616561184018D0012018401D
:101910000023984211D06D42A360A5611800D3E75F
:10192000019800F0E1FA071EC0D08023A289019D32
:101930001343A381D6E70020BAE7A560C4E7A060FF
:10194000C2E701204042BFE704000020502A000007
:101950005CF3FFFF702A0000302A0000F8B5050094
:101960000E001400002804D08369002B01D100F080
:10197000B9F9224B9C422DD16C68A369A360A3895D
:101980001B0731D52369002B2ED023682269F7B2BB
:10199000981A6369F6B2984205DB2100280000F02E
:1019A00033F9002826D1A3680130013BA3602368E6
:1019B0005A1C22601F706369984204D0A389DB0718
:1019C0001AD50A2E18D12100280000F01DF9002890
:1019D00012D00FE00A4B9C4201D1AC68CDE7094B15
:1019E0009C42CAD1EC68C8E72100280000F00CF83E
:1019F0000028CAD0012676423000F8BD502A0000E7
:101A0000702A0000302A0000364B70B51D680600B1
:101A10000C00002D05D0AB69002B02D1280000F08E
:101A200061F9314B9C420FD16C680C23E25E93B29A
:101A300019072DD4D90611D4092301203360373377
:101A40001343A381404270BD284B9C4201D1AC6836
:101A5000EBE7274B9C42E8D1EC68E6E75B0713D540
:101A6000616B002908D023004433994202D0300032
:101A700000F044FA002363632422A3899343A381E3
:101A800000236360236923600823A2891343A38191
:101A90002369002B0BD1A0218022A3898900920009
:101AA0000B40934203D02100300000F0D9F901230C
:101AB000A289134011D00023A36063695B42A36134
:101AC000002023698342BED10C23E25E1306BAD5FF
:101AD00040231343A3810138B5E7920700D463691B
:101AE000A360EDE704000020502A0000702A0000E7
:101AF000302A0000F7B58A8905000C00130760D46E
:101B00004B68002B04DC0B6C002B01DC0020FEBDBD
:101B1000E76A002FFAD000232E682B6080235B0138
:101B20001A4034D0606DA3895B0706D56368C01A7C
:101B3000636B002B01D0236CC01A0200216A0023C2
:101B40002800E76AB847A189431C06D12B681D2BE2
:101B500031D82C4ADA40D3072DD50023636023699E
:101B60002360CB0405D5431C02D12B68002B00D188
:101B70006065616B2E600029C8D023004433994210
:101B800002D0280000F0BAF900206063BFE701230B
:101B9000216A2800B847431CC5D12B68002BC2D04E
:101BA0001D2B01D0162B01D12E60AFE74023A28957
:101BB0001343A381ABE740230B430120A3814042A1
:101BC000A5E70F69002FA1D00B680F60DB1B019305
:101BD0000023920700D14B69A360019B002B00DC1E
:101BE00094E7019B3A00216A2800A66AB0470028C2
:101BF00003DC4023A2891343DFE7019B3F181B1A34
:101C00000193EAE7010040200B6970B505000C0064
:101C1000002B01D1002070BD002804D08369002B67
:101C200001D100F05FF80B4B9C4209D16C680C228B
:101C3000A35E002BEED021002800FFF75BFFEAE750
:101C4000054B9C4201D1AC68F1E7044B9C42EED1BC
:101C5000EC68ECE7502A0000702A0000302A0000EF
:101C600010B5024900F0B2F810BDC046091C0000D2
:101C7000002310B5040003604360836081814366E4
:101C8000C281036143618361190008225C30FFF760
:101C900023FD054B24626362044BA362044BE362A1
:101CA000044B236310BDC046092600003126000006
:101CB000692600009526000070B568254A1E554328
:101CC0000E002900743100F063F9041E08D00021D1
:101CD0002A00016046600C30A0606832FFF7FCFC0F
:101CE000200070BD836913B50400002B28D18364E4
:101CF000C3640365134B144A1B68826201939842C4
:101D000001D101238361200000F020F860602000F1
:101D100000F01CF8A060200000F018F80022E0603D
:101D200004216068FFF7A4FF01220921A068FFF7E2
:101D30009FFF02221221E068FFF79AFF0123A361AF
:101D400013BDC0462C2A0000611C0000F8B51E4BD4
:101D500007001E68B369002B02D13000FFF7C2FFF5
:101D60004836B4687368013B04D53368002B07D04C
:101D70003668F6E70C22A55E002D0DD06834F2E738
:101D800004213800FFF798FF30600028F0D10C23C1
:101D900004003B602000F8BD012320005B42E3818A
:101DA0000233A38165662560A56065602561656174
:101DB000A561082229005C30FFF78EFC6563A563EE
:101DC000A564E564E6E7C0462C2A0000F7B50400E8
:101DD0000700002601914834002C01D13000FEBDDF
:101DE0006368A5680093009B013B009301D52468BC
:101DF000F2E7AB89012B08D90E22AB5E013304D088
:101E000029003800019B984706436835EBE700003E
:101E100070B50E001D000E23C95E90B0140000299D
:101E200007DA00232B60B3891B0611D48023DB0063
:101E30000FE001AA00F05AFC0028F2DBF022029B1E
:101E400012021340054A9B185A4253412B60EDE79A
:101E500040230020236010B070BDC04600E0FFFFAB
:101E6000F7B502268B8905000C00334206D023000B
:101E700047332360236101236361F7BD01AB6A46E9
:101E8000FFF7C6FF00990700280000F081F800283E
:101E900008D10C22A35E9A05EFD4032293431E437C
:101EA000A681E4E70F4BAB628023A2892060134335
:101EB000A381009B20616361019B002B0DD00E2349
:101EC000E15E280000F024FC002806D00322A3894C
:101ED00093431A0001231343A381A0893843A081AF
:101EE000CBE7C046611C000010B5034B0100186829
:101EF00000F04EF810BDC0460400002070B505008B
:101F0000002910D00C1F2368002B00DAE4182800E9
:101F100000F02FFC1D4A1368002B05D1636014608C
:101F2000280000F027FC70BDA34209D92168601881
:101F30008342F3D118685B6841182160EEE7130013
:101F40005A68002A01D0A242F9D919685818A0424B
:101F50000BD120680918581819608242E0D1106826
:101F60005268411819605A60DAE7A04202D90C237E
:101F70002B60D5E721686018824203D1106852684F
:101F80004118216062605C60CAE7C046B40000206E
:101F9000032370B5CD1C9D43083506000C2D1ED2C1
:101FA0000C25A9421DD8300000F0E3FB254A146837
:101FB0002100002919D1244C2368002B03D13000C3
:101FC00000F010FB20602900300000F00BFB431CE8
:101FD0002CD10C233000336000F0CCFB03E0002D4B
:101FE000DFDA0C233360002070BD0B685B1B1AD452
:101FF0000B2B03D90B60CC18256003E08C420ED16B
:1020000063681360300000F0B5FB200007220B303E
:10201000231D9043C31AE7D05A42E250E4E74B68CD
:1020200063600C00EEE70C004968C2E70323C41CA0
:102030009C43A042E0D0211A300000F0D3FA431CA8
:10204000DAD1C6E7B4000020B8000020936810B5CC
:10205000013B9360002B05DA9469A34208DBCBB205
:102060000A2B05D01368581C10601970C8B210BD37
:10207000FFF774FCFBE7F8B506000F001400D51855
:10208000AC4201D1002007E021783A003000FFF790
:10209000DDFF0134431CF3D1F8BD0000F0B59FB063
:1020A00006000F0014000593002804D08369002B5C
:1020B00001D1FFF717FE7F4B9F425CD17768BB8948
:1020C0001B0762D53B69002B5FD0002306AD6B6117
:1020D00020336B761033AB760294029C2378002B6E
:1020E0005DD1029BE31A04930DD0049B029A390040
:1020F0003000FFF7C0FF431C00D1CCE06A69049BAD
:10210000944663446B612378002B00D1C3E0012225
:10211000002352426A6002A95432521801342B60E3
:10212000EB60AB601370AB6521780522624800F06C
:1021300015FB631C9C46002835D12968CB0604D5C5
:10214000532302AA20309B1818700B0704D5532381
:102150002B2002AA9B18187023782A2B2CD0002041
:102160000A21099B2278303A092A00D86BE000281E
:102170002AD0099328E0514B9F4201D1B7689EE7CE
:102180004F4B9F429BD1F76899E739003000FFF72A
:102190003BFC002899D0012040421FB0F0BD252B08
:1021A0009FD001349AE7444B2968C01A0123834029
:1021B0000B432B606446B7E7059B181D1B68059011
:1021C000002B3ADB0993644623782E2B0BD16378DE
:1021D000621C2A2B3FD1059B02341A1D1B680592F5
:1021E000002B35DB079321780322364800F0B6FA3E
:1021F000002807D0334B2A68C01A4023834013437A
:102200002B6001342178631C06222F480293297623
:1022100000F0A4FA002844D02C4B002B2FD12968C1
:10222000059B0722C90528D59B18934308330593BE
:102230006B69039A9B186B614FE75B42EB6002236B
:102240000B432B60BFE74B4301349B18012089E708
:1022500001235B42C6E7002314000A201A006B60CA
:1022600021783039092903D9002BBCD00792BAE76D
:102270004243013452180123F2E70733D5E705AB97
:1022800000933A00124B2900300000E000BF039099
:10229000039B0133CCD1BB895B0600D57BE70B9850
:1022A0007BE705AB00933A00094B2900300000F0B2
:1022B0007FF8ECE7502A0000902A0000702A000006
:1022C000302A0000962A00009A2A00000000000030
:1022D00077200000F7B5150001938A680B6900901C
:1022E0000C00934200DA130022002B604332127874
:1022F000002A01D001332B6023689B0602D52B688E
:1023000002332B60062723681F4027D02300433366
:102310001B785A1E93412268920630D422000199FC
:1023200043320098089EB047431C25D006232068FE
:102330002A68E16803400025042B03D18D1AEB4382
:10234000DB171D40A3682269934201DD9B1AED183B
:102350000027BD4220D1002010E00137E3682A6841
:102360009B1A9F42D2DA2200012319320199009868
:10237000089EB047431CF0D101204042FEBD3020F2
:10238000E1184331087021005A1C45310978A21820
:10239000433202331170C1E7220001231A3201993E
:1023A0000098089EB047431CE6D00137D1E70000F3
:1023B000F0B58BB006920A00433207930590049261
:1023C0000A7E0C00109B6E2A00D18FE017D8632A7A
:1023D0002CD008D8002A00D199E0582A54D02600E1
:1023E0004236327029E0642A01D0692AF7D1216887
:1023F0001A68080623D5111D1960156825E0732A8F
:1024000000D188E008D86F2A29D0702AE7D120228D
:1024100009680A43226003E0752A20D0782ADED1B9
:1024200022007821453211706C4A30E00E001A68A3
:102430004236111D196013683370012379E0490693
:10244000D9D5111D19600023D55E002D03DA2D2387
:10245000049A6D421370624B0A2703932FE02068A1
:102460001968050603D5081D18600D6805E04006CB
:10247000F9D50D68081D1860ADB2594B08270393B4
:102480006F2A18D00A2716E045310A70544A039281
:102490001A682168101D18601568080622D5CB0738
:1024A00002D52023194321601027002D03D12023BA
:1024B00022689A4322602300002243331A70636823
:1024C000A360002B5CDB0422216891432160002D76
:1024D00058D1049E002B64D02600039B42361B7803
:1024E00033705EE04806DAD5ADB2D8E709681A68FD
:1024F000080605D5111D1960136862691A6006E0A7
:102500004906F7D5111D19601368A28A1A800023A5
:10251000049E236154E01A68111D19601668002199
:102520006268300000F01AF9002801D0801B60605A
:10253000636823610023049A137041E02369320029
:1025400006990598079DA847431C43D0236800259A
:102550009B070FD4099BE06898423DDA18003BE0E6
:1025600022000123193206990598079EB047431CA3
:1025700030D00135E368099A9B1A9D42F0DBE9E708
:10258000002DA9D0049E28003900FFF751F8039BC5
:10259000013E5B5C280033703900FEF7C3FF051E67
:1025A000F1D1082F09D12368DB0706D563682269BA
:1025B000934202DC3023013E3370049B9B1B23615A
:1025C000079B09AA00932100069B0598FFF782FE4E
:1025D000431CB3D1012040420BB0F0BDB22A000031
:1025E000A12A0000002370B5064C050008002360F6
:1025F000FEF798FE431C03D12368002B00D02B600C
:1026000070BDC046D400002070B50C000E25495F97
:1026100000F0B2F8002803DB636D1B18636570BD22
:10262000A389024A1340A381F9E7C046FFEFFFFFE9
:10263000F8B51F008B8905000C001600DB0505D5D9
:102640000E23C95E0022022300F074F8A389054A14
:1026500028001340A38132000E23E15E3B0000F00E
:102660001FF8F8BDFFEFFFFF70B50C000E25495FA6
:1026700000F060F8A389421C03D1054A1340A381EE
:1026800070BD802252011343A3816065F8E7C04604
:10269000FFEFFFFF10B50E23C95E00F015F810BD67
:1026A00070B50500080011000022064C22601A00D7
:1026B000FDF7ECFF431C03D12368002B00D02B60F7
:1026C00070BDC046D4000020002370B5064C050044
:1026D00008002360FEF738FE431C03D12368002B5B
:1026E00000D02B6070BDC046D4000020002370B520
:1026F000064C0500080011002360FEF728FE431C6D
:1027000003D12368002B00D02B6070BDD4000020C3
:10271000002370B5064C050008002360FEF71CFE80
:10272000431C03D12368002B00D02B6070BDC04632
:10273000D400002070B50500080011000022064CEE
:1027400022601A00FEF70AFE431C03D12368002B07
:1027500000D02B6070BDC046D4000020C9B28218E2
:10276000904201D10020704703788B42FBD00130AA
:10277000F6E770477047000070B5050008001100CB
:102780000022064C22601A00FDF75EFF431C03D1B5
:102790002368002B00D02B6070BDC046D400002001
:1027A00024020000240200000002000024020000B5
:1027B00000020000E6010000E60100002402000023
:1027C0002402000024020000240200002402000071
:1027D0002402000024020000240200002402000061
:1027E0002402000024020000240200002402000051
:1027F0002402000024020000240200002402000041
:102800002402000024020000240200002402000030
:102810002402000024020000240200002402000020
:102820002402000024020000240200002402000010
:102830002402000024020000240200002402000000
:1028400024020000240200002402000024020000F0
:1028500024020000240200002402000024020000E0
:1028600024020000240200002402000024020000D0
:1028700024020000240200002402000024020000C0
:1028800024020000240200002402000024020000B0
:1028900024020000240200002402000024020000A0
:1028A0000002000000020000080200000802000010
:1028B000080200000802000000080042000C00426C
:1028C0000010004200140042B20C0000AE0C0000E8
:1028D000AE0C0000100D0000100D0000C60C000032
:1028E000B80C0000CC0C0000FE0C0000980D00009D
:1028F000780D0000780D0000040E00008A0D000025
:10290000A60D00007C0D0000B40D0000F40D0000C9
:1029100073746172742D626F6F746C6F6164657231
:102920002D2D2D2D2D2D2D2D2D2D0D00737461721E
:10293000742D73656E642D646174612D2D2D2D2DA4
:102940002D2D2D2D2D0D00002D2D2D2D2D2D2D2D31
:102950002D75706461746120656E642D2D2D2D2D93
:102960002D2D2D2D2D2D0D0073746172742D777208
:102970006974652D646174612D2D2D2D2D2D2D2DE6
:102980002D2D0D002D2D2D2D2D2D2D2D2D2D2D2DC4
:102990002D2D2D2D2D2D2D2D2D2D2D2D2D2D0D00B4
:1029A000636F6E74696E75652D73656E642D6461F9
:1029B00074612D2D2D2D2D2D2D2D2D2D0D00000073
:1029C00073746172742065726173652E2E2E2E2EC3
:1029D0000D000000657261736520656E642E2E2EF9
:1029E0002E2E0D0073746172742077726974652ED7
:1029F0002E2E2E2E0D00000077726974652025643E
:102A00002E2E2E2E2E0D0A007772697465202564F5
:102A100020656E642E2E2E2E2E0D0A00777269749C
:102A20006520656E642E2E2E2E2E0D0008000020CF
:102A30000000000000000000000000000000000096
:102A40000000000000000000000000000000000086
:102A50000000000000000000000000000000000076
:102A60000000000000000000000000000000000066
:102A70000000000000000000000000000000000056
:102A80000000000000000000000000000000000046
:102A9000232D302B2000686C4C0065666745464747
:102AA00000303132333435363738394142434445CA
:102AB0004600303132333435363738396162636439
:102AC00065660000F8B5C046F8BC08BC9E46704775
:102AD000DD000000F8B5C046F8BC08BC9E46704753
:042AE000B50000003D
:102AE400010000000800002000000000502A00003F
:102AF400702A0000302A00000000000000000000DE
:102B040000000000000000000000000000000000C1
:102B140000000000000000000000000000000000B1
:102B240000000000000000000000000000000000A1
:102B34000000000000000000000000000000000091
:082B4400000000000000000089
:0400000300001241A6
:00000001FF
